{
  "contractName": "ProductVerification",
  "abi": [
    {
      "anonymous": false,
      "inputs": [
        {
          "indexed": false,
          "internalType": "string",
          "name": "productId",
          "type": "string"
        },
        {
          "indexed": false,
          "internalType": "string",
          "name": "cid",
          "type": "string"
        },
        {
          "indexed": false,
          "internalType": "string",
          "name": "issuer",
          "type": "string"
        },
        {
          "indexed": false,
          "internalType": "uint256",
          "name": "timestamp",
          "type": "uint256"
        }
      ],
      "name": "ProductRegistered",
      "type": "event"
    },
    {
      "inputs": [
        {
          "internalType": "string",
          "name": "productId",
          "type": "string"
        },
        {
          "internalType": "string",
          "name": "cid",
          "type": "string"
        },
        {
          "internalType": "string",
          "name": "issuer",
          "type": "string"
        }
      ],
      "name": "registerProduct",
      "outputs": [],
      "stateMutability": "nonpayable",
      "type": "function"
    },
    {
      "inputs": [
        {
          "internalType": "string",
          "name": "productId",
          "type": "string"
        }
      ],
      "name": "getProduct",
      "outputs": [
        {
          "internalType": "string",
          "name": "cid",
          "type": "string"
        },
        {
          "internalType": "string",
          "name": "issuer",
          "type": "string"
        },
        {
          "internalType": "uint256",
          "name": "timestamp",
          "type": "uint256"
        },
        {
          "internalType": "bool",
          "name": "exists",
          "type": "bool"
        }
      ],
      "stateMutability": "view",
      "type": "function",
      "constant": true
    },
    {
      "inputs": [
        {
          "internalType": "string",
          "name": "productId",
          "type": "string"
        }
      ],
      "name": "verifyProduct",
      "outputs": [
        {
          "internalType": "bool",
          "name": "",
          "type": "bool"
        }
      ],
      "stateMutability": "view",
      "type": "function",
      "constant": true
    }
  ],
  "bytecode": "0x608060405234801561001057600080fd5b50610785806100206000396000f3fe608060405234801561001057600080fd5b50600436106100415760003560e01c80633406b7181461004657806368111cce1461005b57806392efc45314610087575b600080fd5b61005961005436600461044c565b6100aa565b005b61006e6100693660046104d4565b6101ea565b60405161007e9493929190610561565b60405180910390f35b61009a6100953660046104d4565b61037c565b604051901515815260200161007e565b6000836040516100ba919061059f565b9081526040519081900360200190206003015460ff16156101215760405162461bcd60e51b815260206004820152601a60248201527f50726f6475637420616c72656164792072656769737465726564000000000000604482015260640160405180910390fd5b6040805160808101825283815260208101839052428183015260016060820152905160009061015190869061059f565b9081526040519081900360200190208151819061016e9082610644565b50602082015160018201906101839082610644565b5060408281015160028301556060909201516003909101805460ff1916911515919091179055517f133503b6fe70c79499afb95a8b9ad7cce6e40b92e988d27ea9a97cfaa32b639e906101dd908590859085904290610704565b60405180910390a1505050565b60608060008060008086604051610201919061059f565b908152602001604051809103902060405180608001604052908160008201805461022a906105bb565b80601f0160208091040260200160405190810160405280929190818152602001828054610256906105bb565b80156102a35780601f10610278576101008083540402835291602001916102a3565b820191906000526020600020905b81548152906001019060200180831161028657829003601f168201915b505050505081526020016001820180546102bc906105bb565b80601f01602080910402602001604051908101604052809291908181526020018280546102e8906105bb565b80156103355780601f1061030a57610100808354040283529160200191610335565b820191906000526020600020905b81548152906001019060200180831161031857829003601f168201915b5050509183525050600282015460208083019190915260039092015460ff161515604091820152825191830151908301516060909301519199909850919650945092505050565b6000808260405161038d919061059f565b9081526040519081900360200190206003015460ff1692915050565b634e487b7160e01b600052604160045260246000fd5b600082601f8301126103d057600080fd5b813567ffffffffffffffff808211156103eb576103eb6103a9565b604051601f8301601f19908116603f01168101908282118183101715610413576104136103a9565b8160405283815286602085880101111561042c57600080fd5b836020870160208301376000602085830101528094505050505092915050565b60008060006060848603121561046157600080fd5b833567ffffffffffffffff8082111561047957600080fd5b610485878388016103bf565b9450602086013591508082111561049b57600080fd5b6104a7878388016103bf565b935060408601359150808211156104bd57600080fd5b506104ca868287016103bf565b9150509250925092565b6000602082840312156104e657600080fd5b813567ffffffffffffffff8111156104fd57600080fd5b610509848285016103bf565b949350505050565b60005b8381101561052c578181015183820152602001610514565b50506000910152565b6000815180845261054d816020860160208601610511565b601f01601f19169290920160200192915050565b6080815260006105746080830187610535565b82810360208401526105868187610535565b6040840195909552505090151560609091015292915050565b600082516105b1818460208701610511565b9190910192915050565b600181811c908216806105cf57607f821691505b6020821081036105ef57634e487b7160e01b600052602260045260246000fd5b50919050565b601f82111561063f57600081815260208120601f850160051c8101602086101561061c5750805b601f850160051c820191505b8181101561063b57828155600101610628565b5050505b505050565b815167ffffffffffffffff81111561065e5761065e6103a9565b6106728161066c84546105bb565b846105f5565b602080601f8311600181146106a7576000841561068f5750858301515b600019600386901b1c1916600185901b17855561063b565b600085815260208120601f198616915b828110156106d6578886015182559484019460019091019084016106b7565b50858210156106f45787850151600019600388901b60f8161c191681555b5050505050600190811b01905550565b6080815260006107176080830187610535565b82810360208401526107298187610535565b9050828103604084015261073d8186610535565b9150508260608301529594505050505056fea2646970667358221220056d5ab23ab0d8d7cf835713a18a61e1f0ee2d328208fbb8c287331b8603aa9e64736f6c63430008130033",
  "immutableReferences": {},
  "source": "// SPDX-License-Identifier: MIT\r\npragma solidity ^0.8.19;\r\n\r\ncontract ProductVerification {\r\n    struct Product {\r\n        string cid;        // IPFS content ID (points to product data/images)\r\n        string issuer;     // Manufacturer or brand\r\n        uint256 timestamp; // Block timestamp when registered\r\n        bool exists;       // Flag to check if registered\r\n    }\r\n\r\n    mapping(string => Product) private products;\r\n\r\n    event ProductRegistered(\r\n        string productId,\r\n        string cid,\r\n        string issuer,\r\n        uint256 timestamp\r\n    );\r\n\r\n    /// @notice Register a new product with productId, IPFS CID, and issuer\r\n    /// @param productId Unique product identifier (e.g., QR code string)\r\n    /// @param cid IPFS content identifier of product details\r\n    /// @param issuer Manufacturer/brand name\r\n    function registerProduct(\r\n        string memory productId,\r\n        string memory cid,\r\n        string memory issuer\r\n    ) public {\r\n        require(!products[productId].exists, \"Product already registered\");\r\n        products[productId] = Product(cid, issuer, block.timestamp, true);\r\n        emit ProductRegistered(productId, cid, issuer, block.timestamp);\r\n    }\r\n\r\n    /// @notice Fetch details of a registered product\r\n    /// @param productId Unique product identifier\r\n    /// @return cid IPFS CID\r\n    /// @return issuer Manufacturer/brand\r\n    /// @return timestamp Registration time\r\n    /// @return exists Whether product exists\r\n    function getProduct(string memory productId)\r\n        public\r\n        view\r\n        returns (string memory cid, string memory issuer, uint256 timestamp, bool exists)\r\n    {\r\n        Product memory p = products[productId];\r\n        return (p.cid, p.issuer, p.timestamp, p.exists);\r\n    }\r\n\r\n    /// @notice Verify if a product exists\r\n    /// @param productId Unique product identifier\r\n    /// @return bool True if registered\r\n    function verifyProduct(string memory productId) public view returns (bool) {\r\n        return products[productId].exists;\r\n    }\r\n}\r\n",
  "sourcePath": "C:\\Users\\sohs2\\OneDrive\\Desktop\\major project\\qrverify\\contracts\\ProductVerification.sol",
  "compiler": {
    "name": "solc",
    "version": "0.8.19+commit.7dd6d404.Emscripten.clang"
  },
  "schemaVersion": "3.4.16",
  "updatedAt": "2025-10-13T16:14:08.649Z",
  "networkType": "ethereum",
  "devdoc": {
    "kind": "dev",
    "methods": {
      "getProduct(string)": {
        "params": {
          "productId": "Unique product identifier"
        },
        "returns": {
          "cid": "IPFS CID",
          "exists": "Whether product exists",
          "issuer": "Manufacturer/brand",
          "timestamp": "Registration time"
        }
      },
      "registerProduct(string,string,string)": {
        "params": {
          "cid": "IPFS content identifier of product details",
          "issuer": "Manufacturer/brand name",
          "productId": "Unique product identifier (e.g., QR code string)"
        }
      },
      "verifyProduct(string)": {
        "params": {
          "productId": "Unique product identifier"
        },
        "returns": {
          "_0": "bool True if registered"
        }
      }
    },
    "version": 1
  },
  "userdoc": {
    "kind": "user",
    "methods": {
      "getProduct(string)": {
        "notice": "Fetch details of a registered product"
      },
      "registerProduct(string,string,string)": {
        "notice": "Register a new product with productId, IPFS CID, and issuer"
      },
      "verifyProduct(string)": {
        "notice": "Verify if a product exists"
      }
    },
    "version": 1
  }
}